{
  "contractName": "medRec",
  "abi": [
    {
      "constant": true,
      "inputs": [
        {
          "internalType": "address",
          "name": "",
          "type": "address"
        }
      ],
      "name": "noOfRecords",
      "outputs": [
        {
          "internalType": "uint256",
          "name": "",
          "type": "uint256"
        }
      ],
      "payable": false,
      "stateMutability": "view",
      "type": "function"
    },
    {
      "constant": true,
      "inputs": [
        {
          "internalType": "address",
          "name": "",
          "type": "address"
        },
        {
          "internalType": "uint256",
          "name": "",
          "type": "uint256"
        }
      ],
      "name": "patientRecord",
      "outputs": [
        {
          "internalType": "address",
          "name": "doctorAddress",
          "type": "address"
        },
        {
          "internalType": "address",
          "name": "patientAddress",
          "type": "address"
        },
        {
          "internalType": "string",
          "name": "doctorName",
          "type": "string"
        },
        {
          "internalType": "string",
          "name": "patientName",
          "type": "string"
        },
        {
          "internalType": "string",
          "name": "gender",
          "type": "string"
        },
        {
          "internalType": "uint256",
          "name": "age",
          "type": "uint256"
        },
        {
          "internalType": "string",
          "name": "dateOfVisit",
          "type": "string"
        },
        {
          "internalType": "string",
          "name": "purposeOfVisit",
          "type": "string"
        },
        {
          "internalType": "string",
          "name": "uniqueKey",
          "type": "string"
        }
      ],
      "payable": false,
      "stateMutability": "view",
      "type": "function"
    },
    {
      "constant": true,
      "inputs": [
        {
          "internalType": "string",
          "name": "",
          "type": "string"
        }
      ],
      "name": "records",
      "outputs": [
        {
          "internalType": "address",
          "name": "doctorAddress",
          "type": "address"
        },
        {
          "internalType": "address",
          "name": "patientAddress",
          "type": "address"
        },
        {
          "internalType": "string",
          "name": "doctorName",
          "type": "string"
        },
        {
          "internalType": "string",
          "name": "patientName",
          "type": "string"
        },
        {
          "internalType": "string",
          "name": "gender",
          "type": "string"
        },
        {
          "internalType": "uint256",
          "name": "age",
          "type": "uint256"
        },
        {
          "internalType": "string",
          "name": "dateOfVisit",
          "type": "string"
        },
        {
          "internalType": "string",
          "name": "purposeOfVisit",
          "type": "string"
        },
        {
          "internalType": "string",
          "name": "uniqueKey",
          "type": "string"
        }
      ],
      "payable": false,
      "stateMutability": "view",
      "type": "function"
    },
    {
      "constant": false,
      "inputs": [
        {
          "internalType": "address",
          "name": "_dkey",
          "type": "address"
        },
        {
          "internalType": "address",
          "name": "_pkey",
          "type": "address"
        }
      ],
      "name": "giveCreatePermission",
      "outputs": [],
      "payable": false,
      "stateMutability": "nonpayable",
      "type": "function"
    },
    {
      "constant": false,
      "inputs": [
        {
          "internalType": "address",
          "name": "_dkey",
          "type": "address"
        },
        {
          "internalType": "address",
          "name": "_pkey",
          "type": "address"
        }
      ],
      "name": "giveViewPermission",
      "outputs": [],
      "payable": false,
      "stateMutability": "nonpayable",
      "type": "function"
    },
    {
      "constant": false,
      "inputs": [
        {
          "internalType": "address",
          "name": "_dkey",
          "type": "address"
        },
        {
          "internalType": "address",
          "name": "_pkey",
          "type": "address"
        }
      ],
      "name": "revokeCreatePermission",
      "outputs": [],
      "payable": false,
      "stateMutability": "nonpayable",
      "type": "function"
    },
    {
      "constant": false,
      "inputs": [
        {
          "internalType": "address",
          "name": "_dkey",
          "type": "address"
        },
        {
          "internalType": "address",
          "name": "_pkey",
          "type": "address"
        }
      ],
      "name": "revokeViewPermission",
      "outputs": [],
      "payable": false,
      "stateMutability": "nonpayable",
      "type": "function"
    },
    {
      "constant": false,
      "inputs": [
        {
          "internalType": "address",
          "name": "_dkey",
          "type": "address"
        },
        {
          "internalType": "address",
          "name": "_pkey",
          "type": "address"
        }
      ],
      "name": "autoRevokeCreatePermission",
      "outputs": [],
      "payable": false,
      "stateMutability": "nonpayable",
      "type": "function"
    },
    {
      "constant": false,
      "inputs": [
        {
          "internalType": "address",
          "name": "_dkey",
          "type": "address"
        },
        {
          "internalType": "address",
          "name": "_pkey",
          "type": "address"
        },
        {
          "internalType": "string",
          "name": "_dName",
          "type": "string"
        },
        {
          "internalType": "string",
          "name": "_pName",
          "type": "string"
        },
        {
          "internalType": "string",
          "name": "_pGender",
          "type": "string"
        },
        {
          "internalType": "uint256",
          "name": "_pAge",
          "type": "uint256"
        },
        {
          "internalType": "string",
          "name": "_dov",
          "type": "string"
        },
        {
          "internalType": "string",
          "name": "_pov",
          "type": "string"
        },
        {
          "internalType": "string",
          "name": "_uk",
          "type": "string"
        }
      ],
      "name": "addPatientRecord",
      "outputs": [],
      "payable": false,
      "stateMutability": "nonpayable",
      "type": "function"
    },
    {
      "constant": true,
      "inputs": [
        {
          "internalType": "address",
          "name": "_dkey",
          "type": "address"
        },
        {
          "internalType": "address",
          "name": "_pkey",
          "type": "address"
        }
      ],
      "name": "viewPatientRecords",
      "outputs": [
        {
          "internalType": "bool",
          "name": "",
          "type": "bool"
        }
      ],
      "payable": false,
      "stateMutability": "view",
      "type": "function"
    },
    {
      "constant": true,
      "inputs": [
        {
          "internalType": "address",
          "name": "_pkey",
          "type": "address"
        }
      ],
      "name": "viewOwnRecords",
      "outputs": [
        {
          "internalType": "bool",
          "name": "",
          "type": "bool"
        }
      ],
      "payable": false,
      "stateMutability": "view",
      "type": "function"
    }
  ],
  "bytecode": "0x608060405234801561001057600080fd5b50611c2c806100206000396000f3fe608060405234801561001057600080fd5b50600436106100a95760003560e01c806363d8f2601161007157806363d8f2601461017e57806393ab4f0a1461019a5780639f6aad04146101b6578063a65e6221146101d2578063dcccfa47146101ee578063e77201e21461021e576100a9565b806314ed262f146100ae5780632c928155146100ca5780633891f0e7146100fa578063541e771d1461011657806358e2df281461014e575b600080fd5b6100c860048036036100c391908101906116bf565b610256565b005b6100e460048036036100df9190810190611696565b6102ee565b6040516100f19190611a4e565b60405180910390f35b610114600480360361010f91908101906116bf565b610306565b005b610130600480360361012b919081019061188d565b6103d6565b6040516101459998979695949392919061197c565b60405180910390f35b610168600480360361016391908101906116bf565b61080a565b6040516101759190611a33565b60405180910390f35b610198600480360361019391908101906116bf565b6108f1565b005b6101b460048036036101af91908101906116fb565b6109c1565b005b6101d060048036036101cb91908101906116bf565b610f0b565b005b6101ec60048036036101e791908101906116bf565b610fdb565b005b61020860048036036102039190810190611696565b6110ac565b6040516102159190611a33565b60405180910390f35b61023860048036036102339190810190611851565b6110f4565b60405161024d9998979695949392919061197c565b60405180910390f35b60008060008373ffffffffffffffffffffffffffffffffffffffff1673ffffffffffffffffffffffffffffffffffffffff16815260200190815260200160002060008473ffffffffffffffffffffffffffffffffffffffff1673ffffffffffffffffffffffffffffffffffffffff16815260200190815260200160002060006101000a81548160ff0219169083151502179055505050565b60026020528060005260406000206000915090505481565b8073ffffffffffffffffffffffffffffffffffffffff163373ffffffffffffffffffffffffffffffffffffffff161461033e57600080fd5b60018060008373ffffffffffffffffffffffffffffffffffffffff1673ffffffffffffffffffffffffffffffffffffffff16815260200190815260200160002060008473ffffffffffffffffffffffffffffffffffffffff1673ffffffffffffffffffffffffffffffffffffffff16815260200190815260200160002060006101000a81548160ff0219169083151502179055505050565b6004818051602081018201805184825260208301602085012081835280955050505050506000915090508060000160009054906101000a900473ffffffffffffffffffffffffffffffffffffffff16908060010160009054906101000a900473ffffffffffffffffffffffffffffffffffffffff1690806002018054600181600116156101000203166002900480601f0160208091040260200160405190810160405280929190818152602001828054600181600116156101000203166002900480156104e45780601f106104b9576101008083540402835291602001916104e4565b820191906000526020600020905b8154815290600101906020018083116104c757829003601f168201915b505050505090806003018054600181600116156101000203166002900480601f0160208091040260200160405190810160405280929190818152602001828054600181600116156101000203166002900480156105825780601f1061055757610100808354040283529160200191610582565b820191906000526020600020905b81548152906001019060200180831161056557829003601f168201915b505050505090806004018054600181600116156101000203166002900480601f0160208091040260200160405190810160405280929190818152602001828054600181600116156101000203166002900480156106205780601f106105f557610100808354040283529160200191610620565b820191906000526020600020905b81548152906001019060200180831161060357829003601f168201915b505050505090806005015490806006018054600181600116156101000203166002900480601f0160208091040260200160405190810160405280929190818152602001828054600181600116156101000203166002900480156106c45780601f10610699576101008083540402835291602001916106c4565b820191906000526020600020905b8154815290600101906020018083116106a757829003601f168201915b505050505090806007018054600181600116156101000203166002900480601f0160208091040260200160405190810160405280929190818152602001828054600181600116156101000203166002900480156107625780601f1061073757610100808354040283529160200191610762565b820191906000526020600020905b81548152906001019060200180831161074557829003601f168201915b505050505090806008018054600181600116156101000203166002900480601f0160208091040260200160405190810160405280929190818152602001828054600181600116156101000203166002900480156108005780601f106107d557610100808354040283529160200191610800565b820191906000526020600020905b8154815290600101906020018083116107e357829003601f168201915b5050505050905089565b60008273ffffffffffffffffffffffffffffffffffffffff163373ffffffffffffffffffffffffffffffffffffffff161461084857600090506108eb565b60011515600160008473ffffffffffffffffffffffffffffffffffffffff1673ffffffffffffffffffffffffffffffffffffffff16815260200190815260200160002060008573ffffffffffffffffffffffffffffffffffffffff1673ffffffffffffffffffffffffffffffffffffffff16815260200190815260200160002060009054906101000a900460ff161515146108e657600090506108eb565b600190505b92915050565b8073ffffffffffffffffffffffffffffffffffffffff163373ffffffffffffffffffffffffffffffffffffffff161461092957600080fd5b60008060008373ffffffffffffffffffffffffffffffffffffffff1673ffffffffffffffffffffffffffffffffffffffff16815260200190815260200160002060008473ffffffffffffffffffffffffffffffffffffffff1673ffffffffffffffffffffffffffffffffffffffff16815260200190815260200160002060006101000a81548160ff0219169083151502179055505050565b8873ffffffffffffffffffffffffffffffffffffffff163373ffffffffffffffffffffffffffffffffffffffff16146109f957600080fd5b600115156000808a73ffffffffffffffffffffffffffffffffffffffff1673ffffffffffffffffffffffffffffffffffffffff16815260200190815260200160002060008b73ffffffffffffffffffffffffffffffffffffffff1673ffffffffffffffffffffffffffffffffffffffff16815260200190815260200160002060009054906101000a900460ff16151514610a9257600080fd5b600260008973ffffffffffffffffffffffffffffffffffffffff1673ffffffffffffffffffffffffffffffffffffffff168152602001908152602001600020600081548092919060010191905055506000600260008a73ffffffffffffffffffffffffffffffffffffffff1673ffffffffffffffffffffffffffffffffffffffff1681526020019081526020016000205490506040518061012001604052808b73ffffffffffffffffffffffffffffffffffffffff1681526020018a73ffffffffffffffffffffffffffffffffffffffff16815260200189815260200188815260200187815260200186815260200185815260200184815260200183815250600360008b73ffffffffffffffffffffffffffffffffffffffff1673ffffffffffffffffffffffffffffffffffffffff168152602001908152602001600020600083815260200190815260200160002060008201518160000160006101000a81548173ffffffffffffffffffffffffffffffffffffffff021916908373ffffffffffffffffffffffffffffffffffffffff16021790555060208201518160010160006101000a81548173ffffffffffffffffffffffffffffffffffffffff021916908373ffffffffffffffffffffffffffffffffffffffff1602179055506040820151816002019080519060200190610c8b92919061151f565b506060820151816003019080519060200190610ca892919061151f565b506080820151816004019080519060200190610cc592919061151f565b5060a0820151816005015560c0820151816006019080519060200190610cec92919061151f565b5060e0820151816007019080519060200190610d0992919061151f565b50610100820151816008019080519060200190610d2792919061151f565b509050506040518061012001604052808b73ffffffffffffffffffffffffffffffffffffffff1681526020018a73ffffffffffffffffffffffffffffffffffffffff16815260200189815260200188815260200187815260200186815260200185815260200184815260200183815250600483604051610da79190611965565b908152602001604051809103902060008201518160000160006101000a81548173ffffffffffffffffffffffffffffffffffffffff021916908373ffffffffffffffffffffffffffffffffffffffff16021790555060208201518160010160006101000a81548173ffffffffffffffffffffffffffffffffffffffff021916908373ffffffffffffffffffffffffffffffffffffffff1602179055506040820151816002019080519060200190610e5f92919061151f565b506060820151816003019080519060200190610e7c92919061151f565b506080820151816004019080519060200190610e9992919061151f565b5060a0820151816005015560c0820151816006019080519060200190610ec092919061151f565b5060e0820151816007019080519060200190610edd92919061151f565b50610100820151816008019080519060200190610efb92919061151f565b5090505050505050505050505050565b8073ffffffffffffffffffffffffffffffffffffffff163373ffffffffffffffffffffffffffffffffffffffff1614610f4357600080fd5b60016000808373ffffffffffffffffffffffffffffffffffffffff1673ffffffffffffffffffffffffffffffffffffffff16815260200190815260200160002060008473ffffffffffffffffffffffffffffffffffffffff1673ffffffffffffffffffffffffffffffffffffffff16815260200190815260200160002060006101000a81548160ff0219169083151502179055505050565b8073ffffffffffffffffffffffffffffffffffffffff163373ffffffffffffffffffffffffffffffffffffffff161461101357600080fd5b6000600160008373ffffffffffffffffffffffffffffffffffffffff1673ffffffffffffffffffffffffffffffffffffffff16815260200190815260200160002060008473ffffffffffffffffffffffffffffffffffffffff1673ffffffffffffffffffffffffffffffffffffffff16815260200190815260200160002060006101000a81548160ff0219169083151502179055505050565b60008173ffffffffffffffffffffffffffffffffffffffff163373ffffffffffffffffffffffffffffffffffffffff16146110ea57600090506110ef565b600190505b919050565b6003602052816000526040600020602052806000526040600020600091509150508060000160009054906101000a900473ffffffffffffffffffffffffffffffffffffffff16908060010160009054906101000a900473ffffffffffffffffffffffffffffffffffffffff1690806002018054600181600116156101000203166002900480601f0160208091040260200160405190810160405280929190818152602001828054600181600116156101000203166002900480156111f95780601f106111ce576101008083540402835291602001916111f9565b820191906000526020600020905b8154815290600101906020018083116111dc57829003601f168201915b505050505090806003018054600181600116156101000203166002900480601f0160208091040260200160405190810160405280929190818152602001828054600181600116156101000203166002900480156112975780601f1061126c57610100808354040283529160200191611297565b820191906000526020600020905b81548152906001019060200180831161127a57829003601f168201915b505050505090806004018054600181600116156101000203166002900480601f0160208091040260200160405190810160405280929190818152602001828054600181600116156101000203166002900480156113355780601f1061130a57610100808354040283529160200191611335565b820191906000526020600020905b81548152906001019060200180831161131857829003601f168201915b505050505090806005015490806006018054600181600116156101000203166002900480601f0160208091040260200160405190810160405280929190818152602001828054600181600116156101000203166002900480156113d95780601f106113ae576101008083540402835291602001916113d9565b820191906000526020600020905b8154815290600101906020018083116113bc57829003601f168201915b505050505090806007018054600181600116156101000203166002900480601f0160208091040260200160405190810160405280929190818152602001828054600181600116156101000203166002900480156114775780601f1061144c57610100808354040283529160200191611477565b820191906000526020600020905b81548152906001019060200180831161145a57829003601f168201915b505050505090806008018054600181600116156101000203166002900480601f0160208091040260200160405190810160405280929190818152602001828054600181600116156101000203166002900480156115155780601f106114ea57610100808354040283529160200191611515565b820191906000526020600020905b8154815290600101906020018083116114f857829003601f168201915b5050505050905089565b828054600181600116156101000203166002900490600052602060002090601f016020900481019282601f1061156057805160ff191683800117855561158e565b8280016001018555821561158e579182015b8281111561158d578251825591602001919060010190611572565b5b50905061159b919061159f565b5090565b6115c191905b808211156115bd5760008160009055506001016115a5565b5090565b90565b6000813590506115d381611bbb565b92915050565b600082601f8301126115ea57600080fd5b81356115fd6115f882611a96565b611a69565b9150808252602083016020830185838301111561161957600080fd5b611624838284611b68565b50505092915050565b600082601f83011261163e57600080fd5b813561165161164c82611ac2565b611a69565b9150808252602083016020830185838301111561166d57600080fd5b611678838284611b68565b50505092915050565b60008135905061169081611bd2565b92915050565b6000602082840312156116a857600080fd5b60006116b6848285016115c4565b91505092915050565b600080604083850312156116d257600080fd5b60006116e0858286016115c4565b92505060206116f1858286016115c4565b9150509250929050565b60008060008060008060008060006101208a8c03121561171a57600080fd5b60006117288c828d016115c4565b99505060206117398c828d016115c4565b98505060408a013567ffffffffffffffff81111561175657600080fd5b6117628c828d0161162d565b97505060608a013567ffffffffffffffff81111561177f57600080fd5b61178b8c828d0161162d565b96505060808a013567ffffffffffffffff8111156117a857600080fd5b6117b48c828d0161162d565b95505060a06117c58c828d01611681565b94505060c08a013567ffffffffffffffff8111156117e257600080fd5b6117ee8c828d0161162d565b93505060e08a013567ffffffffffffffff81111561180b57600080fd5b6118178c828d0161162d565b9250506101008a013567ffffffffffffffff81111561183557600080fd5b6118418c828d0161162d565b9150509295985092959850929598565b6000806040838503121561186457600080fd5b6000611872858286016115c4565b925050602061188385828601611681565b9150509250929050565b60006020828403121561189f57600080fd5b600082013567ffffffffffffffff8111156118b957600080fd5b6118c5848285016115d9565b91505092915050565b6118d781611b20565b82525050565b6118e681611b32565b82525050565b60006118f782611af9565b6119018185611b15565b9350611911818560208601611b77565b80840191505092915050565b600061192882611aee565b6119328185611b04565b9350611942818560208601611b77565b61194b81611baa565b840191505092915050565b61195f81611b5e565b82525050565b600061197182846118ec565b915081905092915050565b600061012082019050611992600083018c6118ce565b61199f602083018b6118ce565b81810360408301526119b1818a61191d565b905081810360608301526119c5818961191d565b905081810360808301526119d9818861191d565b90506119e860a0830187611956565b81810360c08301526119fa818661191d565b905081810360e0830152611a0e818561191d565b9050818103610100830152611a23818461191d565b90509a9950505050505050505050565b6000602082019050611a4860008301846118dd565b92915050565b6000602082019050611a636000830184611956565b92915050565b6000604051905081810181811067ffffffffffffffff82111715611a8c57600080fd5b8060405250919050565b600067ffffffffffffffff821115611aad57600080fd5b601f19601f8301169050602081019050919050565b600067ffffffffffffffff821115611ad957600080fd5b601f19601f8301169050602081019050919050565b600081519050919050565b600081519050919050565b600082825260208201905092915050565b600081905092915050565b6000611b2b82611b3e565b9050919050565b60008115159050919050565b600073ffffffffffffffffffffffffffffffffffffffff82169050919050565b6000819050919050565b82818337600083830152505050565b60005b83811015611b95578082015181840152602081019050611b7a565b83811115611ba4576000848401525b50505050565b6000601f19601f8301169050919050565b611bc481611b20565b8114611bcf57600080fd5b50565b611bdb81611b5e565b8114611be657600080fd5b5056fea365627a7a72315820fad81cca3461b78d0fe4cfd9603fae52e7f8d657010619efd393eb208b3082c26c6578706572696d656e74616cf564736f6c63430005100040",
  "source": "pragma experimental ABIEncoderV2;\r\npragma solidity ^0.5.0;\r\n\r\ncontract medRec{\r\n    \r\n    // structure to store the patient information\r\n    struct Patient{\r\n\taddress doctorAddress;\r\n       \taddress patientAddress;\r\n        string doctorName;\r\n        string patientName;\r\n        string gender;\r\n        uint age;\r\n\t    string dateOfVisit;\r\n\t    string purposeOfVisit;\r\n        string uniqueKey;\r\n    }\r\n    \r\n    mapping(address=> mapping(address=>bool))internal addPermit; // mapping for the doctor's create Permission\r\n    mapping(address=> mapping(address=>bool))internal viewPermit;  // mapping for the doctor's view Permission\r\n    mapping(address=>uint)public noOfRecords; // mapping of all the records for individual patient\r\n    mapping(address=>mapping(uint=>Patient))public patientRecord; //mapping for the all the patients record\r\n    mapping(string=>Patient)public records;\r\n    \r\n    // function which will invoke when patient will give permission to doctor to add his records \r\n    function giveCreatePermission(address _dkey, address _pkey)public{\r\n        require(msg.sender==_pkey);\r\n        addPermit[_pkey][_dkey]=true;\r\n    }\r\n    \r\n    // Function to give view permission to doctor for seeing the records of the patient \r\n    function giveViewPermission(address _dkey, address _pkey)public{\r\n        require(msg.sender==_pkey);\r\n        viewPermit[_pkey][_dkey]=true;\r\n    }\r\n\r\n    // function to revoke create permission of a doctor \r\n    function revokeCreatePermission(address _dkey, address _pkey)public{\r\n        require(msg.sender==_pkey);\r\n        addPermit[_pkey][_dkey]=false;\r\n    }\r\n    \r\n    // function to revoke view permission of a doctor    \r\n    function revokeViewPermission(address _dkey, address _pkey)public{\r\n        require(msg.sender==_pkey);\r\n        viewPermit[_pkey][_dkey]=false;\r\n    }\r\n\r\n    // function to automatically revoke create permission of doctor after adding the record of the patient \r\n    function autoRevokeCreatePermission(address _dkey, address _pkey)public{\r\n        addPermit[_pkey][_dkey]=false;\r\n    }\r\n    \r\n    // function to add the patient records\r\n    function addPatientRecord( address _dkey, address _pkey, string memory _dName, string memory _pName,string memory _pGender, uint _pAge, string memory _dov, string memory _pov, string memory _uk) public{\r\n        \r\n        require(msg.sender==_dkey);\r\n        require(addPermit[_pkey][_dkey]==true);\r\n        noOfRecords[_pkey]++;\r\n        uint id= noOfRecords[_pkey];\r\n        patientRecord[_pkey][id]= Patient(_dkey, _pkey ,_dName, _pName ,_pGender, _pAge, _dov,  _pov, _uk);\r\n\r\n        records[_uk]=Patient(_dkey, _pkey ,_dName, _pName ,_pGender, _pAge, _dov,  _pov, _uk);\r\n    }\r\n\r\n    // function to view patient records for doctor\r\n    function viewPatientRecords(address _dkey, address _pkey) public view returns(bool){\r\n        \r\n        if(msg.sender!=_dkey){\r\n            return false;\r\n        }\r\n        if(viewPermit[_pkey][_dkey]!=true){\r\n            return false;\r\n        }\r\n        return true;\r\n    }\r\n\r\n    // function by which patient can view his own records (no permission required)\r\n    function viewOwnRecords(address _pkey) public view returns(bool){\r\n        \r\n        if(msg.sender!=_pkey){\r\n            return false;\r\n        }\r\n        return true;\r\n    }\r\n\r\n\r\n}\r\n",
  "sourcePath": "C:\\Users\\Admin\\NCKH_ThienNQ\\contracts\\medRec.sol",
  "compiler": {
    "name": "solc",
    "version": "0.5.16+commit.9c3226ce.Emscripten.clang"
  },
  "schemaVersion": "3.4.13",
  "updatedAt": "2023-05-20T09:29:48.271Z",
  "networkType": "ethereum",
  "devdoc": {
    "methods": {}
  },
  "userdoc": {
    "methods": {}
  }
}